:100000000C942A000C943F000C943F000C943F0089
:100010000C943F000C943F000C943F000C943F0064
:100020000C943F000C943F000C943F000C943F0054
:100030000C943F000C943F000C943F000C943F0044
:100040000C943F000C943F000C943F000C943F0034
:100050000C943F0011241FBECFE5D8E0DEBFCDBF1A
:1000600010E0A0E6B0E0E0EAFDE002C005900D92ED
:10007000A036B107D9F70E943C050C94CE060C942B
:100080000000442319F04130C9F10895813091F006
:1000900028F08230D9F0833029F108952AB381E025
:1000A00090E002C0880F991F6A95E2F7809582233D
:1000B0008ABB089527B381E090E002C0880F991FA2
:1000C0006A95E2F78095822387BB089524B381E087
:1000D00090E002C0880F991F6A95E2F7809582230D
:1000E00084BB089521B381E090E002C0880F991F7E
:1000F0006A95E2F78095822381BB0895813089F06B
:1001000028F08230C9F0833011F108952AB381E0DC
:1001100090E002C0880F991F6A95E2F7822B8ABB94
:10012000089527B381E090E002C0880F991F6A9577
:10013000E2F7822B87BB089524B381E090E002C0F0
:10014000880F991F6A95E2F7822B84BB089521B32B
:1001500081E090E002C0880F991F6A95E2F7822B38
:1001600081BB0895442319F04130C9F108958130CD
:1001700091F028F08230D9F0833029F108952BB323
:1001800081E090E002C0880F991F6A95E2F78095A0
:1001900082238BBB089528B381E090E002C0880FD2
:1001A000991F6A95E2F78095822388BB089525B34D
:1001B00081E090E002C0880F991F6A95E2F7809570
:1001C000822385BB089522B381E090E002C0880FAE
:1001D000991F6A95E2F78095822382BB089581304A
:1001E00089F028F08230C9F0833011F108952BB3E3
:1001F00081E090E002C0880F991F6A95E2F7822B98
:100200008BBB089528B381E090E002C0880F991F4E
:100210006A95E2F7822B88BB089525B381E090E0D0
:1002200002C0880F991F6A95E2F7822B85BB08955B
:1002300022B381E090E002C0880F991F6A95E2F72F
:10024000822B82BB0895CF93DF93CDB7DEB72E9775
:100250000FB6F894DEBF0FBECDBF41E061E081E094
:100260000E94410041E062E081E00E94410041E0E3
:1002700063E081E00E94410041E064E080E00E9490
:10028000410041E065E080E00E94410041E066E01D
:1002900080E00E94410041E067E080E00E94410070
:1002A00080E090E0A8ECB2E489839A83AB83BC83BE
:1002B00020E030E04AEF54E469817A818B819C81AF
:1002C0000E943906DC01CB018D839E83AF83B88702
:1002D00020E030E040E85FE36D817E818F8198858A
:1002E0000E94B30588232CF481E090E09A878987E7
:1002F0003FC020E03FEF4FE757E46D817E818F8163
:1003000098850E94340618164CF520E030E040E253
:1003100051E469817A818B819C810E943906DC01DC
:10032000CB01BC01CD010E94B805DC01CB019A874D
:1003300089870FC088EC90E09C878B878B859C8594
:100340000197F1F79C878B8789859A8501979A8712
:10035000898789859A85892B69F714C06D817E818B
:100360008F8198850E94B805DC01CB019A87898727
:1003700089859A859E878D878D859E850197F1F762
:100380009E878D8783E30E94E00182E30E94E00163
:1003900088E20E94E0018CE00E94E00186E00E9479
:1003A000E00182E00E94E00181E00E94E0012E96DF
:1003B0000FB6F894DEBF0FBECDBFDF91CF91089589
:1003C000CF93DF93CDB7DEB7AB970FB6F894DEBF10
:1003D0000FBECDBF8BA740E061E081E00E94B2007C
:1003E00040E062E081E00E94B20040E063E081E032
:1003F0000E94B2008BE390E02BA5422F407F2BE3BD
:1004000030E0F90120812F70242BFC01208341E092
:1004100063E081E00E94B20080E090E0A0E8BFE3EA
:1004200089839A83AB83BC8320E030E04AEF54E4B5
:1004300069817A818B819C810E943906DC01CB0124
:100440008D839E83AF83B88720E030E040E85FE390
:100450006D817E818F8198850E94B30588232CF45D
:1004600081E090E09A8789873FC020E03FEF4FE727
:1004700057E46D817E818F8198850E94340618161D
:100480004CF520E030E040E251E469817A818B81D3
:100490009C810E943906DC01CB01BC01CD010E9488
:1004A000B805DC01CB019A8789870FC088EC90E002
:1004B0009C878B878B859C850197F1F79C878B8721
:1004C00089859A8501979A87898789859A85892B55
:1004D00069F714C06D817E818F8198850E94B8056F
:1004E000DC01CB019A87898789859A859E878D87CC
:1004F0008D859E850197F1F79E878D8740E063E0AB
:1005000081E00E94B2008BE390E02BA5222F30E027
:1005100022953295307F3227207F3227422F2BE3DE
:1005200030E0F90120812F70242BFC01208341E071
:1005300063E081E00E94B20080E090E0A0E8BFE3C9
:100540008F87988BA98BBA8B20E030E04AEF54E478
:100550006F85788989899A890E943906DC01CB01E7
:100560008B8B9C8BAD8BBE8B20E030E040E85FE353
:100570006B897C898D899E890E94B30588232CF420
:1005800081E090E0988F8F8B3FC020E03FEF4FE7F6
:1005900057E46B897C898D899E890E9434061816E0
:1005A0004CF520E030E040E251E46F85788989899C
:1005B0009A890E943906DC01CB01BC01CD010E9461
:1005C000B805DC01CB01988F8F8B0FC088EC90E0D1
:1005D0009A8F898F898D9A8D0197F1F79A8F898FDC
:1005E0008F89988D0197988F8F8B8F89988D892B04
:1005F00069F714C06B897C898D899E890E94B80532
:10060000DC01CB01988F8F8B8F89988D9C8F8B8F7E
:100610008B8D9C8D0197F1F79C8F8B8F40E063E071
:1006200081E00E94B20080E090E0A0EAB0E48D8F0B
:100630009E8FAF8FB8A320E030E04AEF54E46D8D79
:100640007E8D8F8D98A10E943906DC01CB0189A394
:100650009AA3ABA3BCA320E030E040E85FE369A12C
:100660007AA18BA19CA10E94B30588232CF481E080
:1006700090E09EA38DA33FC020E03FEF4FE757E4FB
:1006800069A17AA18BA19CA10E94340618164CF591
:1006900020E030E040E251E46D8D7E8D8F8D98A199
:1006A0000E943906DC01CB01BC01CD010E94B805D6
:1006B000DC01CB019EA38DA30FC088EC90E098A72E
:1006C0008FA38FA198A50197F1F798A78FA38DA16C
:1006D0009EA101979EA38DA38DA19EA1892B69F751
:1006E00014C069A17AA18BA19CA10E94B805DC016C
:1006F000CB019EA38DA38DA19EA19AA789A789A5B1
:100700009AA50197F1F79AA789A7AB960FB6F89427
:10071000DEBF0FBECDBFDF91CF910895CF93DF93A2
:10072000CDB7DEB7AB970FB6F894DEBF0FBECDBF27
:100730008BA741E061E081E00E94B20040E062E00E
:1007400081E00E94B20040E063E081E00E94B200DC
:100750008BE390E02BA5422F407F2BE330E0F901A3
:1007600020812F70242BFC01208341E063E081E095
:100770000E94B20080E090E0A0E8BFE389839A8302
:10078000AB83BC8320E030E04AEF54E469817A8196
:100790008B819C810E943906DC01CB018D839E8375
:1007A000AF83B88720E030E040E85FE36D817E8171
:1007B0008F8198850E94B30588232CF481E090E016
:1007C0009A8789873FC020E03FEF4FE757E46D816C
:1007D0007E818F8198850E94340618164CF520E0A2
:1007E00030E040E251E469817A818B819C810E94F2
:1007F0003906DC01CB01BC01CD010E94B805DC014A
:10080000CB019A8789870FC088EC90E09C878B8703
:100810008B859C850197F1F79C878B8789859A85C5
:1008200001979A87898789859A85892B69F714C0EA
:100830006D817E818F8198850E94B805DC01CB0196
:100840009A87898789859A859E878D878D859E85DC
:100850000197F1F79E878D8740E063E081E00E9479
:10086000B2008BE390E02BA5222F30E02295329549
:10087000307F3227207F3227422F2BE330E0F901EF
:1008800020812F70242BFC01208341E063E081E074
:100890000E94B20080E090E0A0E8BFE38F87988BD1
:1008A000A98BBA8B20E030E04AEF54E46F85788959
:1008B00089899A890E943906DC01CB018B8B9C8B3C
:1008C000AD8BBE8B20E030E040E85FE36B897C8934
:1008D0008D899E890E94B30588232CF481E090E0E5
:1008E000988F8F8B3FC020E03FEF4FE757E46B8935
:1008F0007C898D899E890E94340618164CF520E06B
:1009000030E040E251E46F85788989899A890E94B4
:100910003906DC01CB01BC01CD010E94B805DC0128
:10092000CB01988F8F8B0FC088EC90E09A8F898FC6
:10093000898D9A8D0197F1F79A8F898F8F89988D7C
:100940000197988F8F8B8F89988D892B69F714C0A9
:100950006B897C898D899E890E94B805DC01CB0159
:10096000988F8F8B8F89988D9C8F8B8F8B8D9C8D83
:100970000197F1F79C8F8B8F40E063E081E00E944C
:10098000B20080E090E0A0EAB0E48D8F9E8FAF8F40
:10099000B8A320E030E04AEF54E46D8D7E8D8F8D5A
:1009A00098A10E943906DC01CB0189A39AA3ABA3CD
:1009B000BCA320E030E040E85FE369A17AA18BA10D
:1009C0009CA10E94B30588232CF481E090E09EA3B3
:1009D0008DA33FC020E03FEF4FE757E469A17AA124
:1009E0008BA19CA10E94340618164CF520E030E043
:1009F00040E251E46D8D7E8D8F8D98A10E94390665
:100A0000DC01CB01BC01CD010E94B805DC01CB01AA
:100A10009EA38DA30FC088EC90E098A78FA38FA111
:100A200098A50197F1F798A78FA38DA19EA1019793
:100A30009EA38DA38DA19EA1892B69F714C069A1E6
:100A40007AA18BA19CA10E94B805DC01CB019EA3D9
:100A50008DA38DA19EA19AA789A789A59AA5019783
:100A6000F1F79AA789A7AB960FB6F894DEBF0FBE31
:100A7000CDBFDF91CF910895CF93DF9300D0CDB755
:100A8000DEB70E9423010E944F0519821A8282E478
:100A90000E948E05898389810E948E03FFCFCF93A8
:100AA000DF93CDB7DEB740E064E081E00E94410013
:100AB00040E065E081E00E94410041E066E081E0C5
:100AC0000E94410040E067E081E00E9441008DE229
:100AD00090E02DE230E0F90120812F7EFC0120839F
:100AE0008DE290E02DE230E0F90120812064FC01EC
:100AF00020838DE290E02DE230E0F9012081277F14
:100B0000FC0120838DE290E02DE230E0F9012081AC
:100B10002B7FFC012083DF91CF910895CF93DF934A
:100B200000D0CDB7DEB78A8319828FE290E02A81A8
:100B3000FC01208300008EE290E02EE230E0F9011B
:100B40002081221F2227221FFC012083222399F3C8
:100B50008FE290E0FC018081898389810F900F9062
:100B6000DF91CF9108950E94E70508F481E0089590
:100B70000E94130688F09F5798F0B92F9927B75114
:100B8000B0F0E1F0660F771F881F991F1AF0BA9531
:100B9000C9F714C0B13091F00E942D06B1E008955C
:100BA0000C942D06672F782F8827B85F39F0B93F4E
:100BB000CCF3869577956795B395D9F73EF49095E4
:100BC0008095709561957F4F8F4F9F4F0895990F36
:100BD0000008550FAA0BE0E8FEEF16161706E80707
:100BE000F907C0F012161306E407F50798F0621B28
:100BF000730B840B950B39F40A2661F0232B242BFD
:100C0000252B21F408950A2609F4A140A6958FEF1B
:100C1000811D811D089557FD9058440F551F59F0AF
:100C20005F3F71F04795880F97FB991F61F09F3FD9
:100C300079F087950895121613061406551FF2CF02
:100C40004695F1DF08C0161617061806991FF1CF52
:100C500086957105610508940895E894BB27662779
:100C60007727CB0197F908950E94E70508F48FEFE5
:100C700008950E944C060C94BD060E94AF0638F001
:100C80000E94B60620F0952311F00C94A6060C9451
:100C9000AC0611240C942E060E940B0670F3959F4F
:100CA000C1F3950F50E0551F629FF001729FBB2763
:100CB000F00DB11D639FAA27F00DB11DAA1F649FFF
:100CC0006627B00DA11D661F829F2227B00DA11DB2
:100CD000621F739FB00DA11D621F839FA00D611D38
:100CE000221F749F3327A00D611D231F849F600D59
:100CF000211D822F762F6A2F11249F5750409AF082
:100D0000F1F088234AF0EE0FFF1FBB1F661F771F0D
:100D1000881F91505040A9F79E3F510580F00C94D8
:100D2000A6060C942E065F3FE4F3983ED4F3869516
:100D300077956795B795F795E7959F5FC1F7FE2B78
:100D4000880F911D9695879597F9089597F99F6754
:100D500080E870E060E008959FEF80EC0895002443
:100D60000A941616170618060906089500240A9410
:100D700012161306140605060895092E0394000C96
:100D800011F4882352F0BB0F40F4BF2B11F460FF25
:100D900004C06F5F7F4F8F4F9F4F0895F894FFCF30
:00000001FF
