:100000000C942A000C943F000C943F000C943F0089
:100010000C943F000C943F000C943F000C943F0064
:100020000C943F000C943F000C943F000C943F0054
:100030000C943F000C943F000C943F000C943F0044
:100040000C943F000C943F000C943F000C943F0034
:100050000C943F0011241FBECFE5D8E0DEBFCDBF1A
:1000600010E0A0E6B0E0E4EAFCE002C005900D92EA
:10007000A636B107D9F70E946B040C9450060C9475
:100080000000442321F0413009F07FC042C081309C
:10009000B1F0813030F0823001F1833009F075C069
:1000A0002AC02AB381E090E0AC0102C0440F551F82
:1000B0006A95E2F7BA01609562236ABB089527B397
:1000C00081E090E0AC0102C0440F551F6A95E2F751
:1000D000BA016095622367BB089524B381E090E084
:1000E000AC0102C0440F551F6A95E2F7BA01609552
:1000F000622364BB089521B381E090E0AC0102C0AB
:10010000440F551F6A95E2F7BA016095622361BBFF
:1001100008958130A1F0813028F08230E9F08330F9
:10012000A1F527C02AB381E090E0AC0102C0440FE2
:10013000551F6A95E2F7BA01622B6ABB089527B38F
:1001400081E090E0AC0102C0440F551F6A95E2F7D0
:10015000BA01622B67BB089524B381E090E0AC0143
:1001600002C0440F551F6A95E2F7BA01622B64BBC7
:10017000089521B381E090E0AC0102C0440F551F07
:100180006A95E2F7BA01622B61BB0895813049F0AC
:10019000813028F0823039F0833041F406C06ABBE8
:1001A000089567BB089564BB089561BB0895442317
:1001B00021F0413009F07FC042C08130B1F0813080
:1001C00030F0823001F1833009F075C02AC02BB3C2
:1001D00081E090E0AC0102C0440F551F6A95E2F740
:1001E000BA01609562236BBB089528B381E090E06B
:1001F000AC0102C0440F551F6A95E2F7BA01609541
:10020000622368BB089525B381E090E0AC0102C091
:10021000440F551F6A95E2F7BA016095622365BBEA
:10022000089522B381E090E0AC0102C0440F551F55
:100230006A95E2F7BA016095622362BB0895813046
:10024000A1F0813028F08230E9F08330A1F527C099
:100250002BB381E090E0AC0102C0440F551F6A95BA
:10026000E2F7BA01622B6BBB089528B381E090E0FE
:10027000AC0102C0440F551F6A95E2F7BA01622B28
:1002800068BB089525B381E090E0AC0102C0440F43
:10029000551F6A95E2F7BA01622B65BB089522B338
:1002A00081E090E0AC0102C0440F551F6A95E2F76F
:1002B000BA01622B62BB0895813049F0813028F089
:1002C000823039F0833041F406C06BBB089568BBBF
:1002D000089565BB089562BB08958130B9F08130FF
:1002E00030F0823011F1833009F03CC02DC089B369
:1002F00090E09C0102C0359527956A95E2F7B90117
:10030000617069BB89B3FA018083089586B390E078
:100310009C0102C0359527956A95E2F7B901617095
:1003200066BB86B3FA018083089583B390E09C0195
:1003300002C0359527956A95E2F7B901617063BBF4
:1003400083B3FA018083089580B390E09C0102C0DA
:10035000359527956A95E2F7B901617060BB80B366
:10036000FA0180830895813059F0813028F082307D
:1003700059F0833081F40CC089B3FB018083089568
:1003800086B3FB018083089583B3FB0180830895C6
:1003900080B3FB01808308958130A1F0813028F083
:1003A0008230E9F08330A1F527C02BB381E090E0E3
:1003B000AC0102C0440F551F6A95E2F7BA016227EB
:1003C0006BBB089528B381E090E0AC0102C0440FFC
:1003D000551F6A95E2F7BA01622768BB089525B3F5
:1003E00081E090E0AC0102C0440F551F6A95E2F72E
:1003F000BA01622765BB089522B381E090E0AC01A9
:1004000002C0440F551F6A95E2F7BA01622762BB2A
:1004100008958130A1F0813028F08230E9F08330F6
:10042000A1F527C02BB381E090E0AC0102C0440FDE
:10043000551F6A95E2F7BA01622B6BBB089528B38A
:1004400081E090E0AC0102C0440F551F6A95E2F7CD
:10045000BA01622B68BB089525B381E090E0AC013E
:1004600002C0440F551F6A95E2F7BA01622B65BBC3
:10047000089522B381E090E0AC0102C0440F551F03
:100480006A95E2F7BA01622B62BB08950E940405E7
:1004900008958F929F92AF92BF92CF92DF92EF9288
:1004A000FF920F931F93DF93CF93CDB7DEB7C8545E
:1004B000D0400FB6F894DEBF0FBECDBF5C014B013C
:1004C000DE01AD5BBF4FE0E6F0E086E001900D920B
:1004D0008150E1F7FF248E010F5F1F4F0F2EF3E4D1
:1004E000CF2EDD24F02DCC0EDD1EEE2401C0FE2C1F
:1004F0000E944E05F3942F2D30E021503040F8013A
:10050000E20FF31F80839F2D973030F42C0D3D1D9B
:10051000F9019081891759F7FF2DF234D1F4FE01CA
:100520007F96D501CE018B9621912D93E817F9077F
:10053000D9F7F5011486FE017396D401CE01019618
:100540004D9621912D93E817F907D9F7F4011386F9
:1005500003C0FF2DF23460F2C85BDF4F0FB6F89492
:10056000DEBF0FBECDBFCF91DF911F910F91FF90E6
:10057000EF90DF90CF90BF90AF909F908F900895B5
:100580001F93182F81E061E040E00E94D70081E0D6
:1005900062E040E00E94D70081E063E040E00E941A
:1005A000D7008BB3912F907F8F70892B8BBB81E00D
:1005B00063E041E00E94D7008FEC97E00197F1F7EC
:1005C00000C0000081E063E040E00E94D7008BB3F0
:1005D0001295107F8F70182B1BBB81E063E041E008
:1005E0000E94D7008FEC97E00197F1F700C0000060
:1005F00081E063E040E00E94D7008FE097E201973E
:10060000F1F700C000001F91089581E061E041E032
:100610000E94410081E062E041E00E94410081E0EF
:1006200063E041E00E94410080E064E041E00E941C
:10063000410080E065E041E00E94410080E066E02A
:1006400041E00E94410080E067E041E00E944100FB
:100650008FEF90E7A2E081509040A040E1F700C00A
:10066000000083E30E94C00282E30E94C00288E28D
:100670000E94C0028CE00E94C00286E00E94C0027C
:1006800082E00E94C00281E00E94C00208951F9390
:10069000182F81E061E041E00E94D70081E062E034
:1006A00040E00E94D70081E063E040E00E94D70074
:1006B0008BB3912F907F8F70892B8BBB81E063E090
:1006C00041E00E94D7008FEC97E00197F1F700C05E
:1006D000000081E063E040E00E94D7008BB31295F8
:1006E000107F8F70182B1BBB81E063E041E00E94FC
:1006F000D7008FEC97E00197F1F700C0000081E090
:1007000063E040E00E94D7008FE097E20197F1F7A5
:1007100000C000001F9108951F93CF93DF93EC0159
:100720008881882351F010E00E9447031F5FFE017B
:10073000E10FF11D80818823B9F7DF91CF911F91DF
:100740000895DF93CF9300D000D0CDB7DEB790E807
:10075000998390EC9A8394E99B8394ED9C83FE01AA
:10076000E80FF11D8181860F0E94C0020F900F904B
:100770000F900F90CF91DF91089581E00E94C00209
:1007800008958F929F92AF92BF92CF92DF92FF9285
:100790000F931F93DF93CF93CDB7DEB72A970FB692
:1007A000F894DEBF0FBECDBF99230CF041C09095E9
:1007B0008095709561957F4F8F4F9F4F1616170646
:1007C000180619060CF070C0FF244E010894811C15
:1007D000911C0F2EFAE0AF2EF0E0BF2EF0E0CF2EEE
:1007E000F0E0DF2EF02D84010F0D111DA601950103
:1007F0000E941306605DF8016083622F732F842FBF
:10080000952FF394161617061806190664F3FE01C1
:10081000EF0DF11D8DE28183F39409F44AC0FE01CE
:10082000EF0DF11D80810E944703FA94C1F741C08A
:10083000611571058105910521F480E30E9447034C
:1008400038C016161706180619069CF5FF244E0127
:100850000894811C911C0F2EFAE0AF2EF0E0BF2E01
:10086000F0E0CF2EF0E0DF2EF02D84010F0D111DF2
:10087000A60195010E941306605DF8016083622F56
:10088000732F842F952FF394161617061806190642
:1008900064F3FF2071F0FE01EF0DF11D80810E94D5
:1008A0004703FA94C1F705C08DE28983FF24F394CE
:1008B000B6CF2A960FB6F894DEBF0FBECDBFCF914C
:1008C000DF911F910F91FF90DF90CF90BF90AF907D
:1008D0009F908F9008950E9405030E948C0482E4EB
:1008E0000E94B1040E944703FFCF81E064E041E031
:1008F0000E94410081E065E041E00E94410081E00A
:1009000066E040E00E94410081E067E041E00E9433
:10091000410083E58DB9089581E064E040E00E94E4
:10092000410081E065E040E00E94410081E066E036
:1009300041E00E94410081E067E040E00E94410008
:100940006C986E9A6B986A98089581E064E040E034
:100950000E94D700089581E064E041E00E94D70042
:1009600008958FB98EB1881F8827881F8EB98EB1E0
:100970008823C1F38FB108958FB98EB1881F88275E
:10098000881F8EB98EB18823C1F308958EB1881F58
:100990008827881F8EB98EB18823C1F38FB108953F
:1009A0001F93CF93DF93EC018881882351F010E0EF
:1009B0000E94BC041F5FFE01E10FF11D80818823AE
:1009C000B9F7DF91CF911F910895EF92FF921F9396
:1009D000CF93DF937C010E94C604F70180838332AA
:1009E00059F010E01F5FE701C10FD11D0E94C6043E
:1009F00088838332B9F701C0E7011882DF91CF9174
:100A00001F91FF90EF90089583E061E041E00E9424
:100A1000410083E060E040E00E944100539A549A14
:100A200080B5806880BD80B58F7B80BD599858980F
:100A300057985698559880B5826080BD80B584607F
:100A400080BD529880B58F7E80BD80B58F7D80BD82
:100A500080B5877F80BD83E389B908958CB98BB158
:100A600082958695877081708BB98BB18823B9F395
:100A700008951F93CF93DF93EC018881882351F071
:100A800010E00E942E051F5FFE01E10FF11D808125
:100A90008823B9F7DF91CF911F9108958BB1881FFB
:100AA0008827881F8BB98BB18823C1F38CB1089537
:100AB000CF93DF93EC010E944E058881882329F0B3
:100AC0000E944E0588818823D9F71882DF91CF9143
:100AD00008958F929F92AF92BF92CF92DF92FF9232
:100AE0000F931F93DF93CF93CDB7DEB72A970FB63F
:100AF000F894DEBF0FBECDBF99230CF041C0909596
:100B00008095709561957F4F8F4F9F4F16161706F2
:100B1000180619060CF070C0FF244E010894811CC1
:100B2000911C0F2EFAE0AF2EF0E0BF2EF0E0CF2E9A
:100B3000F0E0DF2EF02D84010F0D111DA6019501AF
:100B40000E941306605DF8016083622F732F842F6B
:100B5000952FF394161617061806190664F3FE016E
:100B6000EF0DF11D8DE28183F39409F44AC0FE017B
:100B7000EF0DF11D80810E942E05FA94C1F741C04E
:100B8000611571058105910521F480E30E942E0510
:100B900038C016161706180619069CF5FF244E01D4
:100BA0000894811C911C0F2EFAE0AF2EF0E0BF2EAE
:100BB000F0E0CF2EF0E0DF2EF02D84010F0D111D9F
:100BC000A60195010E941306605DF8016083622F03
:100BD000732F842F952FF3941616170618061906EF
:100BE00064F3FF2071F0FE01EF0DF11D80810E9482
:100BF0002E05FA94C1F705C08DE28983FF24F39492
:100C0000B6CF2A960FB6F894DEBF0FBECDBFCF91F8
:100C1000DF911F910F91FF90DF90CF90BF90AF9029
:100C20009F908F90089597FB092E05260ED057FDB3
:100C300004D014D00AD0001C38F45095409530955B
:100C400021953F4F4F4F5F4F0895F6F79095809550
:100C5000709561957F4F8F4F9F4F0895A1E21A2E97
:100C6000AA1BBB1BFD010DC0AA1FBB1FEE1FFF1F50
:100C7000A217B307E407F50720F0A21BB30BE40BA0
:100C8000F50B661F771F881F991F1A9469F76095E7
:100C90007095809590959B01AC01BD01CF010895A1
:040CA000F894FFCFF6
:060CA400244750474741C0
:00000001FF
