:100000000C942A000C943F000C943F000C943F0089
:100010000C943F000C943F000C943F000C943F0064
:100020000C943F000C943F000C943F000C943F0054
:100030000C943F000C943F000C943F000C943F0044
:100040000C943F000C943F000C943F000C943F0034
:100050000C943F0011241FBECFE5D8E0DEBFCDBF1A
:1000600010E0A0E6B0E0EAE1F0E102C005900D92F8
:10007000A837B107D9F70E9453060C940B080C94CB
:100080000000442319F04130C9F10895813091F006
:1000900028F08230D9F0833029F108952AB381E025
:1000A00090E002C0880F991F6A95E2F7809582233D
:1000B0008ABB089527B381E090E002C0880F991FA2
:1000C0006A95E2F78095822387BB089524B381E087
:1000D00090E002C0880F991F6A95E2F7809582230D
:1000E00084BB089521B381E090E002C0880F991F7E
:1000F0006A95E2F78095822381BB0895813089F06B
:1001000028F08230C9F0833011F108952AB381E0DC
:1001100090E002C0880F991F6A95E2F7822B8ABB94
:10012000089527B381E090E002C0880F991F6A9577
:10013000E2F7822B87BB089524B381E090E002C0F0
:10014000880F991F6A95E2F7822B84BB089521B32B
:1001500081E090E002C0880F991F6A95E2F7822B38
:1001600081BB0895442319F04130C9F108958130CD
:1001700091F028F08230D9F0833029F108952BB323
:1001800081E090E002C0880F991F6A95E2F78095A0
:1001900082238BBB089528B381E090E002C0880FD2
:1001A000991F6A95E2F78095822388BB089525B34D
:1001B00081E090E002C0880F991F6A95E2F7809570
:1001C000822385BB089522B381E090E002C0880FAE
:1001D000991F6A95E2F78095822382BB089581304A
:1001E00089F028F08230C9F0833011F108952BB3E3
:1001F00081E090E002C0880F991F6A95E2F7822B98
:100200008BBB089528B381E090E002C0880F991F4E
:100210006A95E2F7822B88BB089525B381E090E0D0
:1002200002C0880F991F6A95E2F7822B85BB08955B
:1002300022B381E090E002C0880F991F6A95E2F72F
:10024000822B82BB0895CF93DF93CDB7DEB70E9498
:100250009106DF91CF910895CF93DF93CDB7DEB7AD
:10026000C055D1090FB6F894DEBF0FBECDBF9E01B9
:10027000235B3F4FF90191838083CE01815B9F4FC8
:10028000FC01718360831C82CE01895B9F4F26E055
:10029000E0E6F0E0DC0101900D922A95E1F7198289
:1002A0008AC00E94E7068C8389818F5F8983898158
:1002B000882F90E001979E012B5F3F4F820F931F85
:1002C0002C81FC01208389818730C8F48981882FA3
:1002D00090E001979E012B5F3F4F820F931FFC011F
:1002E00040818981882F90E001979E01295B3F4FD3
:1002F000820F931FFC018081481709F019828981C0
:10030000823409F058C019821A821A821CC08A816C
:10031000882F90E09E01235B3F4FF90120813181BE
:10032000820F931F2A81222F30E0225E3F4FAE01C1
:100330004B5F5F4F240F351FF9012081FC012083A3
:100340008A818F5F8A838A818C3008F3CE01835B38
:100350009F4FFC01808191810C96FC0110821B82D1
:100360001B821CC08B81882F90E09E01215B3F4F38
:10037000F90120813181820F931F2B81222F30E0E0
:100380002E5E3F4FAE014B5F5F4F240F351FF901CB
:100390002081FC0120838B818F5F8B838B818B304D
:1003A00008F3CE01815B9F4FFC01808191810B9608
:1003B000FC01108204C08981823408F472CFC05BD2
:1003C000DF4F0FB6F894DEBF0FBECDBFDF91CF91E8
:1003D0000895CF93DF93CDB7DEB72E970FB6F8947D
:1003E000DEBF0FBECDBF41E061E081E00E94410071
:1003F00041E062E081E00E94410041E063E081E091
:100400000E94410041E064E080E00E94410041E040
:1004100065E080E00E94410041E066E080E00E94EB
:10042000410041E067E080E00E94410080E090E010
:10043000A8ECB2E489839A83AB83BC8320E030E0EC
:100440004AEF54E469817A818B819C810E9476070E
:10045000DC01CB018D839E83AF83B88720E030E041
:1004600040E85FE36D817E818F8198850E94F00670
:1004700088232CF481E090E09A8789873FC020E0B0
:100480003FEF4FE757E46D817E818F8198850E9411
:10049000710718164CF520E030E040E251E4698124
:1004A0007A818B819C810E947607DC01CB01BC01A3
:1004B000CD010E94F506DC01CB019A8789870FC028
:1004C00088EC90E09C878B878B859C850197F1F762
:1004D0009C878B8789859A8501979A8789878985E3
:1004E0009A85892B69F714C06D817E818F819885EB
:1004F0000E94F506DC01CB019A87898789859A8558
:100500009E878D878D859E850197F1F79E878D87C4
:1005100083E30E94A60282E30E94A60288E20E9470
:10052000A6028CE00E94A60286E00E94A60282E05B
:100530000E94A60281E00E94A6022E960FB6F894B1
:10054000DEBF0FBECDBFDF91CF910895CF93DF9374
:10055000CDB7DEB7AB970FB6F894DEBF0FBECDBFF9
:100560008BA740E061E081E00E94B20040E062E0E1
:1005700081E00E94B20040E063E081E00E94B200AE
:100580008BE390E02BA5422F407F2BE330E0F90175
:1005900020812F70242BFC01208341E063E081E067
:1005A0000E94B20080E090E0A0E8BFE389839A83D4
:1005B000AB83BC8320E030E04AEF54E469817A8168
:1005C0008B819C810E947607DC01CB018D839E8309
:1005D000AF83B88720E030E040E85FE36D817E8143
:1005E0008F8198850E94F00688232CF481E090E0AA
:1005F0009A8789873FC020E03FEF4FE757E46D813E
:100600007E818F8198850E94710718164CF520E035
:1006100030E040E251E469817A818B819C810E94C3
:100620007607DC01CB01BC01CD010E94F506DC019F
:10063000CB019A8789870FC088EC90E09C878B87D5
:100640008B859C850197F1F79C878B8789859A8597
:1006500001979A87898789859A85892B69F714C0BC
:100660006D817E818F8198850E94F506DC01CB012A
:100670009A87898789859A859E878D878D859E85AE
:100680000197F1F79E878D8740E063E081E00E944B
:10069000B2008BE390E02BA5222F30E0229532951B
:1006A000307F3227207F3227422F2BE330E0F901C1
:1006B00020812F70242BFC01208341E063E081E046
:1006C0000E94B20080E090E0A0E8BFE38F87988BA3
:1006D000A98BBA8B20E030E04AEF54E46F8578892B
:1006E00089899A890E947607DC01CB018B8B9C8BD0
:1006F000AD8BBE8B20E030E040E85FE36B897C8906
:100700008D899E890E94F00688232CF481E090E078
:10071000988F8F8B3FC020E03FEF4FE757E46B8906
:100720007C898D899E890E94710718164CF520E0FE
:1007300030E040E251E46F85788989899A890E9486
:100740007607DC01CB01BC01CD010E94F506DC017E
:10075000CB01988F8F8B0FC088EC90E09A8F898F98
:10076000898D9A8D0197F1F79A8F898F8F89988D4E
:100770000197988F8F8B8F89988D892B69F714C07B
:100780006B897C898D899E890E94F506DC01CB01ED
:10079000988F8F8B8F89988D9C8F8B8F8B8D9C8D55
:1007A0000197F1F79C8F8B8F40E063E081E00E941E
:1007B000B20080E090E0A0EAB0E48D8F9E8FAF8F12
:1007C000B8A320E030E04AEF54E46D8D7E8D8F8D2C
:1007D00098A10E947607DC01CB0189A39AA3ABA361
:1007E000BCA320E030E040E85FE369A17AA18BA1DF
:1007F0009CA10E94F00688232CF481E090E09EA347
:100800008DA33FC020E03FEF4FE757E469A17AA1F5
:100810008BA19CA10E94710718164CF520E030E0D6
:1008200040E251E46D8D7E8D8F8D98A10E947607F8
:10083000DC01CB01BC01CD010E94F506DC01CB013E
:100840009EA38DA30FC088EC90E098A78FA38FA1E3
:1008500098A50197F1F798A78FA38DA19EA1019765
:100860009EA38DA38DA19EA1892B69F714C069A1B8
:100870007AA18BA19CA10E94F506DC01CB019EA36D
:100880008DA38DA19EA19AA789A789A59AA5019755
:10089000F1F79AA789A7AB960FB6F894DEBF0FBE03
:1008A000CDBFDF91CF910895CF93DF93CDB7DEB762
:1008B000AB970FB6F894DEBF0FBECDBF8BA741E05C
:1008C00061E081E00E94B20040E062E081E00E94CD
:1008D000B20040E063E081E00E94B2008BE390E070
:1008E0002BA5422F407F2BE330E0F90120812F70B0
:1008F000242BFC01208341E063E081E00E94B200F0
:1009000080E090E0A0E8BFE389839A83AB83BC8357
:1009100020E030E04AEF54E469817A818B819C8148
:100920000E947607DC01CB018D839E83AF83B8875D
:1009300020E030E040E85FE36D817E818F81988523
:100940000E94F00688232CF481E090E09A87898742
:100950003FC020E03FEF4FE757E46D817E818F81FC
:1009600098850E94710718164CF520E030E040E2AF
:1009700051E469817A818B819C810E947607DC0138
:10098000CB01BC01CD010E94F506DC01CB019A87A9
:1009900089870FC088EC90E09C878B878B859C852E
:1009A0000197F1F79C878B8789859A8501979A87AC
:1009B000898789859A85892B69F714C06D817E8125
:1009C0008F8198850E94F506DC01CB019A87898783
:1009D00089859A859E878D878D859E850197F1F7FC
:1009E0009E878D8740E063E081E00E94B2008BE348
:1009F00090E02BA5222F30E022953295307F3227D0
:100A0000207F3227422F2BE330E0F90120812F7025
:100A1000242BFC01208341E063E081E00E94B200CE
:100A200080E090E0A0E8BFE38F87988BA98BBA8B1A
:100A300020E030E04AEF54E46F85788989899A890B
:100A40000E947607DC01CB018B8B9C8BAD8BBE8B20
:100A500020E030E040E85FE36B897C898D899E89E6
:100A60000E94F00688232CF481E090E0988F8F8B11
:100A70003FC020E03FEF4FE757E46B897C898D89C9
:100A80009E890E94710718164CF520E030E040E284
:100A900051E46F85788989899A890E947607DC01FB
:100AA000CB01BC01CD010E94F506DC01CB01988F82
:100AB0008F8B0FC088EC90E09A8F898F898D9A8DEB
:100AC0000197F1F79A8F898F8F89988D0197988F69
:100AD0008F8B8F89988D892B69F714C06B897C89DE
:100AE0008D899E890E94F506DC01CB01988F8F8B42
:100AF0008F89988D9C8F8B8F8B8D9C8D0197F1F7B3
:100B00009C8F8B8F40E063E081E00E94B20080E028
:100B100090E0A0EAB0E48D8F9E8FAF8FB8A320E065
:100B200030E04AEF54E46D8D7E8D8F8D98A10E9448
:100B30007607DC01CB0189A39AA3ABA3BCA320E079
:100B400030E040E85FE369A17AA18BA19CA10E94FB
:100B5000F00688232CF481E090E09EA38DA33FC093
:100B600020E03FEF4FE757E469A17AA18BA19CA158
:100B70000E94710718164CF520E030E040E251E485
:100B80006D8D7E8D8F8D98A10E947607DC01CB0143
:100B9000BC01CD010E94F506DC01CB019EA38DA313
:100BA0000FC088EC90E098A78FA38FA198A501971C
:100BB000F1F798A78FA38DA19EA101979EA38DA366
:100BC0008DA19EA1892B69F714C069A17AA18BA17F
:100BD0009CA10E94F506DC01CB019EA38DA38DA1F3
:100BE0009EA19AA789A789A59AA50197F1F79AA727
:100BF00089A7AB960FB6F894DEBF0FBECDBFDF91CD
:100C0000CF910895CF93DF9300D01F92CDB7DEB779
:100C10009B838A8319820EC08981882F90E02A8164
:100C20003B81820F931FFC0180810E9454048981C3
:100C30008F5F89838981882F90E02A813B81820F91
:100C4000931FFC018081882339F70F900F900F903C
:100C5000DF91CF910895CF93DF9300D000D000D0E3
:100C6000CDB7DEB78D836E8380E8898380EC8A837D
:100C700084E98B8384ED8C838D81882F90E09E01A5
:100C80002F5F3F4F820F931FFC0190818E81890F50
:100C90000E94A60226960FB6F894DEBF0FBECDBF07
:100CA000DF91CF910895CF93DF93CDB7DEB76997EA
:100CB0000FB6F894DEBF0FBECDBF0E9423010E9485
:100CC000E901CE010E96BC01CE0101960E942C01D5
:100CD00060E080E00E942B0686E690E00E9402061B
:100CE000CE010E960E940206CE010E960E94D406F8
:100CF0008DE690E00E94D40660E082E00E942B0620
:100D000080E790E00E940206CE0101960E94020652
:100D1000CE0101960E94D4068DE690E00E94D40692
:100D2000D0CF41E061E083E00E94410040E060E01C
:100D300083E00E9441008AB188608AB98AB18061EB
:100D40008AB980B5806880BD80B58F7B80BD8BB14E
:100D50008D7F8BB98BB18E7F8BB98AB18F778AB932
:100D60008AB18F7B8AB98AB18F7D8AB980B582605A
:100D700080BD80B5846080BD8AB18B7F8AB980B523
:100D80008F7E80BD80B58F7D80BD80B5877F80BD23
:100D900083E389B908958CB98BB185FB882780F9E5
:100DA0008BB98823C9F308950F931F93CF938C01B8
:100DB000C0E003C00E94CB06CF5FF801EC0FF11D2D
:100DC00080818111F7CFCF911F910F9108958BB141
:100DD000881F8827881F8BB98823C9F38CB1089591
:100DE0000E94240708F481E008950E94500788F0CB
:100DF0009F5798F0B92F9927B751B0F0E1F0660FDF
:100E0000771F881F991F1AF0BA95C9F714C0B1301F
:100E100091F00E946A07B1E008950C946A07672F69
:100E2000782F8827B85F39F0B93FCCF3869577954E
:100E30006795B395D9F73EF4909580957095619537
:100E40007F4F8F4F9F4F0895990F0008550FAA0BA2
:100E5000E0E8FEEF16161706E807F907C0F01216CD
:100E60001306E407F50798F0621B730B840B950BD0
:100E700039F40A2661F0232B242B252B21F4089525
:100E80000A2609F4A140A6958FEF811D811D0895C2
:100E900057FD9058440F551F59F05F3F71F047952B
:100EA000880F97FB991F61F09F3F79F08795089510
:100EB000121613061406551FF2CF4695F1DF08C02F
:100EC000161617061806991FF1CF8695710561054C
:100ED00008940895E894BB2766277727CB0197F9F4
:100EE00008950E94240708F48FEF08950E9489074F
:100EF0000C94FA070E94EC0738F00E94F30720F0E8
:100F0000952311F00C94E3070C94E90711240C9439
:100F10006B070E94480770F3959FC1F3950F50E04F
:100F2000551F629FF001729FBB27F00DB11D639F9B
:100F3000AA27F00DB11DAA1F649F6627B00DA11D41
:100F4000661F829F2227B00DA11D621F739FB00DE7
:100F5000A11D621F839FA00D611D221F749F332757
:100F6000A00D611D231F849F600D211D822F762FF0
:100F70006A2F11249F5750409AF0F1F088234AF0CD
:100F8000EE0FFF1FBB1F661F771F881F9150504039
:100F9000A9F79E3F510580F00C94E3070C946B0772
:100FA0005F3FE4F3983ED4F3869577956795B795C0
:100FB000F795E7959F5FC1F7FE2B880F911D9695DA
:100FC000879597F9089597F99F6780E870E060E04A
:100FD00008959FEF80EC089500240A9416161706D2
:100FE00018060906089500240A941216130614061A
:100FF00005060895092E0394000C11F4882352F07D
:10100000BB0F40F4BF2B11F460FF04C06F5F7F4F34
:0A1010008F4F9F4F0895F894FFCF13
:10101A002447504747416C6174203A20000D09006B
:08102A006C6F6E67203A200094
:00000001FF
