:100000000C942A000C9447000C9447000C94470071
:100010000C9447000C9447000C9447000C94470044
:100020000C9447000C9447000C9447000C94470034
:100030000C9447000C9447000C9447000C94470024
:100040000C9447000C9447000C9447000C94470014
:100050000C94470011241FBECFE5D8E0DEBFCDBF12
:1000600011E0A0E6B0E0E8ECFFE002C005900D92E0
:10007000AC30B107D9F711E0ACE0B1E001C01D929E
:10008000A03FB107E1F70E9417070C94E2070C9418
:100090000000442321F0413009F07FC042C081308C
:1000A000B1F0813030F0823001F1833009F075C059
:1000B0002AC02AB381E090E0AC0102C0440F551F72
:1000C0006A95E2F7BA01609562236ABB089527B387
:1000D00081E090E0AC0102C0440F551F6A95E2F741
:1000E000BA016095622367BB089524B381E090E074
:1000F000AC0102C0440F551F6A95E2F7BA01609542
:10010000622364BB089521B381E090E0AC0102C09A
:10011000440F551F6A95E2F7BA016095622361BBEF
:1001200008958130A1F0813028F08230E9F08330E9
:10013000A1F527C02AB381E090E0AC0102C0440FD2
:10014000551F6A95E2F7BA01622B6ABB089527B37F
:1001500081E090E0AC0102C0440F551F6A95E2F7C0
:10016000BA01622B67BB089524B381E090E0AC0133
:1001700002C0440F551F6A95E2F7BA01622B64BBB7
:10018000089521B381E090E0AC0102C0440F551FF7
:100190006A95E2F7BA01622B61BB0895813049F09C
:1001A000813028F0823039F0833041F406C06ABBD8
:1001B000089567BB089564BB089561BB0895442307
:1001C00021F0413009F07FC042C08130B1F0813070
:1001D00030F0823001F1833009F075C02AC02BB3B2
:1001E00081E090E0AC0102C0440F551F6A95E2F730
:1001F000BA01609562236BBB089528B381E090E05B
:10020000AC0102C0440F551F6A95E2F7BA01609530
:10021000622368BB089525B381E090E0AC0102C081
:10022000440F551F6A95E2F7BA016095622365BBDA
:10023000089522B381E090E0AC0102C0440F551F45
:100240006A95E2F7BA016095622362BB0895813036
:10025000A1F0813028F08230E9F08330A1F527C089
:100260002BB381E090E0AC0102C0440F551F6A95AA
:10027000E2F7BA01622B6BBB089528B381E090E0EE
:10028000AC0102C0440F551F6A95E2F7BA01622B18
:1002900068BB089525B381E090E0AC0102C0440F33
:1002A000551F6A95E2F7BA01622B65BB089522B328
:1002B00081E090E0AC0102C0440F551F6A95E2F75F
:1002C000BA01622B62BB0895813049F0813028F079
:1002D000823039F0833041F406C06BBB089568BBAF
:1002E000089565BB089562BB08958130B9F08130EF
:1002F00030F0823011F1833009F03CC02DC089B359
:1003000090E09C0102C0359527956A95E2F7B90106
:10031000617069BB89B3FA018083089586B390E068
:100320009C0102C0359527956A95E2F7B901617085
:1003300066BB86B3FA018083089583B390E09C0185
:1003400002C0359527956A95E2F7B901617063BBE4
:1003500083B3FA018083089580B390E09C0102C0CA
:10036000359527956A95E2F7B901617060BB80B356
:10037000FA0180830895813059F0813028F082306D
:1003800059F0833081F40CC089B3FB018083089558
:1003900086B3FB018083089583B3FB0180830895B6
:1003A00080B3FB01808308958130A1F0813028F073
:1003B0008230E9F08330A1F527C02BB381E090E0D3
:1003C000AC0102C0440F551F6A95E2F7BA016227DB
:1003D0006BBB089528B381E090E0AC0102C0440FEC
:1003E000551F6A95E2F7BA01622768BB089525B3E5
:1003F00081E090E0AC0102C0440F551F6A95E2F71E
:10040000BA01622765BB089522B381E090E0AC0198
:1004100002C0440F551F6A95E2F7BA01622762BB1A
:1004200008958130A1F0813028F08230E9F08330E6
:10043000A1F527C02BB381E090E0AC0102C0440FCE
:10044000551F6A95E2F7BA01622B6BBB089528B37A
:1004500081E090E0AC0102C0440F551F6A95E2F7BD
:10046000BA01622B68BB089525B381E090E0AC012E
:1004700002C0440F551F6A95E2F7BA01622B65BBB3
:10048000089522B381E090E0AC0102C0440F551FF3
:100490006A95E2F7BA01622B62BB089510920C01D3
:1004A00080E090E02DE031E0F901E80FF91F1082C3
:1004B000019686399105C1F70895EF92FF920F9347
:1004C0001F93CF93DF938C017B01EA010E944E02C0
:1004D00080E690E00E945207CE010E945207CCE6CF
:1004E000D0E0CE010E9452078FEF94E3ACE0815040
:1004F0009040A040E1F700C000000E944E028FE64D
:1005000090E00E945207C8010E94520784E890E0E0
:100510000E945207C7010E945207CE010E94520753
:100520008FEF98E0ADE381509040A040E1F700C02C
:100530000000DF91CF911F910F91FF90EF900895F0
:100540000F931F93CF93DF93EC018B010E944E0218
:100550008DE890E00E945207CE010E94520781EA86
:1005600090E00E945207C8010E9452078CE690E07A
:100570000E9452078FE79AE1A6E081509040A04088
:10058000E1F700C00000DF91CF911F910F91089516
:100590000F931F93CF93DF938C01EB010E944E02C8
:1005A00080E690E00E945207CE010E9452078CE63E
:1005B00090E00E9452078FEF94E3ACE081509040AE
:1005C000A040E1F700C000000E944E0284EA90E0E3
:1005D0000E945207C8010E94520780EB90E00E94DF
:1005E00052078FEF98E0ADE381509040A040E1F7D3
:1005F00000C000008DEB90E06DEC70E00E94A00266
:1006000080915F01DF91CF911F910F9108950F931A
:100610001F93CF93DF93EC018B010E944E0280ED7C
:1006200090E00E945207CE010E9452078BED90E0AD
:100630000E945207C8010E9452078FED90E00E946D
:1006400052078FEF99E6A8E181509040A040E1F772
:1006500000C00000DF91CF911F910F91089583EEAC
:1006600090E00E9452078FEB97E2A9E08150904002
:10067000A040E1F700C000000E944E0288EE90E02A
:100680000E9452078FEB97E2A9E081509040A04072
:10069000E1F700C000000E944E0286EF90E00E9449
:1006A00052078FEB97E2A9E081509040A040E1F71C
:1006B00000C0000008950E94360708958F929F920F
:1006C000AF92BF92CF92DF92EF92FF920F931F9360
:1006D000DF93CF93CDB7DEB7C854D0400FB6F894B0
:1006E000DEBF0FBECDBF5C014B01DE01AD5BBF4F76
:1006F000E5E0F1E086E001900D928150E1F7FF2402
:100700008E010F5F1F4F0F2EF3E4CF2EDD24F02D4F
:10071000CC0EDD1EEE2401C0FE2C0E944E07F39489
:100720002F2D30E021503040F801E20FF31F80837D
:100730009F2D973030F42C0D3D1DF90190818917C4
:1007400059F7FF2DF634D1F4FE017F96D501CE0185
:100750008C9621912D93E817F907D9F7F5011586A5
:10076000FE017296D401CE0101964D9621912D93F2
:10077000E817F907D9F7F401148603C0FF2DF63402
:1007800060F2C85BDF4F0FB6F894DEBF0FBECDBF7F
:10079000CF91DF911F910F91FF90EF90DF90CF905D
:1007A000BF90AF909F908F9008951F93182F81E076
:1007B00061E040E00E94DF0081E062E040E00E94F2
:1007C000DF0081E063E040E00E94DF008BB3912F07
:1007D000907F8F70892B8BBB81E063E041E00E94AA
:1007E000DF008FE99FE00197F1F700C0000081E092
:1007F00063E040E00E94DF008BB31295107F8F70A2
:10080000182B1BBB81E063E041E00E94DF008FE911
:100810009FE00197F1F700C0000081E063E040E055
:100820000E94DF008FE19EE40197F1F700C0000015
:100830001F91089581E061E041E00E94490081E05C
:1008400062E041E00E94490081E063E041E00E94F3
:10085000490080E064E041E00E94490080E065E0FA
:1008600041E00E94490080E066E041E00E944900CA
:1008700080E067E041E00E9449008FEF91EEA4E044
:1008800081509040A040E1F700C0000083E30E9447
:10089000D50382E30E94D50388E20E94D5038CE051
:1008A0000E94D50386E00E94D50382E00E94D50312
:1008B00081E00E94D50308951F93182F81E061E025
:1008C00041E00E94DF0081E062E040E00E94DF0042
:1008D00081E063E040E00E94DF008BB3912F907FC6
:1008E0008F70892B8BBB81E063E041E00E94DF00C9
:1008F0008FE99FE00197F1F700C0000081E063E01D
:1009000040E00E94DF008BB31295107F8F70182B90
:100910001BBB81E063E041E00E94DF008FE99FE0C4
:100920000197F1F700C0000081E063E040E00E9421
:10093000DF008FE19EE40197F1F700C000001F91F6
:1009400008951F93CF93DF93EC018881882351F0A2
:1009500010E00E945C041F5FFE01E10FF11D808129
:100960008823B9F7DF91CF911F910895DF93CF933B
:1009700000D000D0CDB7DEB790E8998390EC9A8391
:1009800094E99B8394ED9C83FE01E80FF11D818126
:10099000860F0E94D5030F900F900F900F90CF916C
:1009A000DF91089581E00E94D50308958F929F9270
:1009B000AF92BF92CF92DF92FF920F931F93DF937C
:1009C000CF93CDB7DEB72A970FB6F894DEBF0FBE30
:1009D000CDBF99230CF041C090958095709561959D
:1009E0007F4F8F4F9F4F16161706180619060CF0EB
:1009F00070C0FF244E010894811C911C0F2EFAE058
:100A0000AF2EF0E0BF2EF0E0CF2EF0E0DF2EF02D85
:100A100084010F0D111DA60195010E94C707605D9D
:100A2000F8016083622F732F842F952FF39416168D
:100A300017061806190664F3FE01EF0DF11D8DE28D
:100A40008183F39409F44AC0FE01EF0DF11D80810A
:100A50000E945C04FA94C1F741C0611571058105DB
:100A6000910521F480E30E945C0438C01616170635
:100A7000180619069CF5FF244E010894811C911C50
:100A80000F2EFAE0AF2EF0E0BF2EF0E0CF2EF0E018
:100A9000DF2EF02D84010F0D111DA60195010E947E
:100AA000C707605DF8016083622F732F842F952F35
:100AB000F394161617061806190664F3FF2071F052
:100AC000FE01EF0DF11D80810E945C04FA94C1F7D4
:100AD00005C08DE28983FF24F394B6CF2A960FB622
:100AE000F894DEBF0FBECDBFCF91DF911F910F9164
:100AF000FF90DF90CF90BF90AF909F908F90089520
:100B0000813061F0813028F0823069F08330A1F4C7
:100B10000FC080E041E00E944900089581E041E07B
:100B20000E944900089582E041E00E944900089532
:100B300083E041E00E9449000895813061F08130F6
:100B400028F0823069F08330A1F40FC080E041E0EA
:100B50000E94DF00089581E041E00E94DF000895D7
:100B600082E041E00E94DF00089583E041E00E94BE
:100B7000DF000895813061F0813028F0823069F023
:100B80008330A1F40FC080E040E00E94DF000895B0
:100B900081E040E00E94DF00089582E040E00E9492
:100BA000DF00089583E040E00E94DF000895813077
:100BB00059F0813028F0823059F0833081F40CC034
:100BC00080E00E94D401089581E00E94D40108953C
:100BD00082E00E94D401089583E00E94D401089528
:100BE00081E064E041E00E94490081E065E041E08D
:100BF0000E94490081E066E040E00E94490081E0F7
:100C000067E041E00E94490083E58DB9089581E0E5
:100C100064E040E00E94490081E065E040E00E941D
:100C2000490081E066E041E00E94490081E067E020
:100C300040E00E9449006C986E9A6B986A980895FB
:100C400081E064E040E00E94DF00089581E064E01C
:100C500041E00E94DF0008958FB98EB1881F882778
:100C6000881F8EB98EB18823C1F38FB108958FB9D3
:100C70008EB1881F8827881F8EB98EB18823C1F353
:100C800008958EB1881F8827881F8EB98EB188235A
:100C9000C1F38FB108951F93CF93DF93EC01888147
:100CA000882351F010E00E9437061F5FFE01E10F1C
:100CB000F11D80818823B9F7DF91CF911F910895AD
:100CC000EF92FF921F93CF93DF937C010E94410626
:100CD000F7018083833259F010E01F5FE701C10FF5
:100CE000D11D0E94410688838332B9F701C0E70114
:100CF0001882DF91CF911F91FF90EF9008954F924E
:100D00005F926F927F928F929F92AF92BF92DF928B
:100D1000EF92FF920F931F93CF93DF93EC01633019
:100D200029F1643028F4613059F0623029F413C09D
:100D3000643039F1653081F1EE24FF24870104C06D
:100D4000EE24FF248701E3946881662381F58824DB
:100D50009924540158C00F2EFAE0EF2EF0E0FF2E38
:100D6000F0E00F2FF0E01F2FF02DEECF0F2EF4E666
:100D7000EF2EF0E0FF2EF0E00F2FF0E01F2FF02D10
:100D8000E3CF0F2EF8EEEF2EF3E0FF2EF0E00F2F63
:100D9000F0E01F2FF02DD8CF0F2EF0E1EF2EF7E26D
:100DA000FF2EF0E00F2FF0E01F2FF02DCDCF882485
:100DB00099245401DD240F2EFAE04F2EF0E05F2E2F
:100DC000F0E06F2EF0E07F2EF02D70E06053704069
:100DD000882777FD8095982FA80197010E948607A4
:100DE000860E971EA81EB91EC801B701A301920165
:100DF0000E94A50779018A01D394FE01ED0DF11D32
:100E00006081662311F7682D792D8A2D9B2DDF9146
:100E1000CF911F910F91FF90EF90DF90BF90AF9017
:100E20009F908F907F906F905F904F9008950F9359
:100E30001F93CF93DF930E945B030E941A04C5EDBA
:100E4000D1E003EE11E0CE01B8010E945E0380E024
:100E500060E00E94B604CE010E94A10481E060E03F
:100E60000E94B604C8010E94A104EDCF83E061E0B6
:100E700041E00E94490083E060E040E00E944900B8
:100E800082E08BB988E18AB986E880BD10BC8FEC1E
:100E900089B908955D9BFECF8CB908955F9BFECF05
:100EA0008CB108951F93CF93DF93EC018881882341
:100EB00051F010E00E944A071F5FFE01E10FF11D93
:100EC00080818823B9F7DF91CF911F910895EF9228
:100ED000FF921F93CF93DF937C010E944E07F7018F
:100EE0008083833259F010E01F5FE701C10FD11DED
:100EF0000E944E0788838332B9F701C0E701188248
:100F0000DF91CF911F91FF90EF900895629FD001E4
:100F1000739FF001829FE00DF11D649FE00DF11DB4
:100F2000929FF00D839FF00D749FF00D659FF00D63
:100F30009927729FB00DE11DF91F639FB00DE11D50
:100F4000F91FBD01CF0111240895A1E21A2EAA1B99
:100F5000BB1BFD010DC0AA1FBB1FEE1FFF1FA21769
:100F6000B307E407F50720F0A21BB30BE40BF50B66
:100F7000661F771F881F991F1A9469F760957095EF
:100F8000809590959B01AC01BD01CF01089597FB21
:100F9000092E05260ED057FD04D0D7DF0AD0001C3D
:100FA00038F450954095309521953F4F4F4F5F4F06
:100FB0000895F6F790958095709561957F4F8F4FC6
:080FC0009F4F0895F894FFCF44
:100FC80041542B43495053454E443D000D0A0047B8
:100FD8004554202F7570646174653F6170695F6B5B
:100FE80065793D00266669656C64313D0041542B86
:100FF80043495053544152543D22544350222C22C9
:1010080000222C0047455420687474703A2F2F0032
:101018002F76616C75652E7478740D0A003136323E
:101028002E3235332E3135352E32323600383000F7
:1010380041542B43574A41503D2200222C22002282
:101048000D0A0041540D0A0041542B43574D4F449B
:10105800453D310D0A0041542B4349504D4F4445FD
:0C1068003D300D0A00244750474741006E
:00000001FF
